:100000000C9461000C947E000C947E000C947E0095
:100010000C947E000C947E000C947E000C947E0068
:100020000C947E000C947E000C947E000C947E0058
:100030000C947E000C947E000C947E000C947E0048
:100040000C9434030C947E000C947E000C947E007F
:100050000C947E000C947E000C947E000C947E0028
:100060000C947E000C947E00000000002400270009
:100070002A0000000000250028002B0000000000DE
:1000800023002600290004040404040404040202DA
:100090000202020203030303030301020408102007
:1000A0004080010204081020010204081020000012
:1000B0000007000201000003040600000000000029
:1000C000000011241FBECFEFD8E0DEBFCDBF11E08E
:1000D000A0E0B1E0E6ECFFE002C005900D92A43094
:1000E000B107D9F711E0A4E0B1E001C01D92AB3136
:1000F000B107E1F70E949C050C94E1070C94000005
:10010000A0E0B0E0E6E8F0E00C94B207EC01A880D3
:10011000B980CA80DB80A114B104C104D10441F4C8
:1001200084E2A82E89EDB82E8BE5C82E87E0D82E64
:10013000C601B5012DE133EF41E050E00E946D07AB
:1001400027EA31E440E050E00E944E077B018C0139
:10015000C601B5012DE133EF41E050E00E946D078B
:10016000CA01B9012CEE34EF4FEF5FEF0E944E074A
:100170006E0D7F1D801F911F97FF04C0615070405E
:1001800080409048688379838A839B839B01AC017C
:100190005F77B901CA01CDB7DEB7EAE00C94CE07AC
:1001A0000E948000089580E091E00E948000089500
:1001B0006093000170930101809302019093030109
:1001C000089586E00E94AD0490930D0180930C0188
:1001D00087E00E94AD0490930F0180930E0188E0A8
:1001E00061E00E94590488EE93E00E94D50388E004
:1001F00060E00E94590489E061E020E432E44FE0CD
:1002000050E00E9400050E9439066093040170933B
:100210000501809306019093070120E030E040E063
:100220005FE30E94EB0620E030E044EE51E40E94E0
:10023000D105609308017093090180930A0190939E
:100240000B0162E070E080E090E00E94AB057093EB
:100250001101609310016091080170910901809172
:100260000A0190910B0120E030E040E251E40E944D
:10027000CD0588230CF073C183E061E00E9459042E
:1002800082E060E00E94590484E061E00E94590429
:1002900085E060E00E9459046EEB70E080E090E041
:1002A0000E947C038091100190911101009709F048
:1002B000A3C082E060E00E94590483E061E00E94F4
:1002C000590485E061E00E94590484E060E00E94E6
:1002D00059046CE271E080E090E00E947C0388E0C9
:1002E00061E00E94590488EE93E00E94D50388E003
:1002F00060E00E94590489E061E020E432E44FE0CC
:1003000050E00E9400050E9439066093040170933A
:100310000501809306019093070120E030E040E062
:100320005FE30E94EB0620E030E044EE51E40E94DF
:10033000D105609308017093090180930A0190939D
:100340000B0120E030E040E251E40E94CD0588231B
:100350000CF04CC182E061E00E94590483E060E04F
:100360000E94590485E060E00E94590484E061E045
:100370000E9459046CE271E080E090E00E947C03EE
:1003800088E061E00E94590488EE93E00E94D50362
:1003900088E060E00E94590489E061E020E432E4F2
:1003A0004FE050E00E9400050E943906609304016E
:1003B00070930501809306019093070120E030E0DF
:1003C00040E05FE30E94EB0620E030E044EE51E4C1
:1003D0000E94D105609308017093090180930A017E
:1003E00090930B0120E030E040E251E40E94CD0503
:1003F00088230CF0FBC09CC0019709F0F7C082E095
:1004000061E00E94590483E060E00E94590485E0A5
:1004100060E00E94590484E061E00E9459046CE2AB
:1004200071E080E090E00E947C0388E061E00E943F
:10043000590488EE93E00E94D50388E060E00E94B2
:10044000590489E061E020E432E44FE050E00E948A
:1004500000050E94390660930401709305018093A2
:1004600006019093070120E030E040E05FE30E9446
:10047000EB0620E030E044EE51E40E94D1056093A9
:1004800008017093090180930A0190930B0120E009
:1004900030E040E251E40E94CD0588230CF0A6C074
:1004A00082E060E00E94590483E061E00E94590408
:1004B00085E061E00E94590484E060E00E945904F4
:1004C0006CE271E080E090E00E947C0388E061E0F3
:1004D0000E94590488EE93E00E94D50388E060E012
:1004E0000E94590489E061E020E432E44FE050E0EA
:1004F0000E9400050E943906609304017093050173
:10050000809306019093070120E030E040E05FE334
:100510000E94EB0620E030E044EE51E40E94D10559
:10052000609308017093090180930A0190930B0175
:1005300083E061E00E94590482E060E00E94590477
:1005400084E061E00E94590485E060E00E94590463
:100550006EEB70E080E090E00E947C0347C08091E9
:100560000C0190910D010097D1F480910E019091B2
:100570000F01009739F482E061E00E94590483E0A2
:1005800060E008C0019711F582E060E00E94590424
:1005900083E061E00E94590485E061E021C0019799
:1005A000A9F480910E0190910F01892B79F482E0DA
:1005B00061E00E94590483E060E00E94590485E0F4
:1005C00060E00E94590484E061E00EC082E060E0D7
:1005D0000E94590483E060E00E94590485E060E0D5
:1005E0000E94590484E060E00E94590461E470E0D4
:1005F00080E090E00E947C0382E060E00E94590469
:1006000083E060E00E94590485E060E00E945904A4
:1006100084E060E00E94590469E170E080E090E0CD
:100620000E947C03089582E061E00E941A0483E046
:1006300061E00E941A0485E061E00E941A0484E0EF
:1006400061E00E941A0487E060E00E941A0486E0DC
:1006500060E00E941A0488E061E00E941A0489E0C8
:1006600060E00E941A0408951F920F920FB60F9235
:1006700011242F933F938F939F93AF93BF938091B8
:10068000160190911701A0911801B09119013091B4
:100690001A010196A11DB11D232F2D5F2D3720F0CA
:1006A0002D570196A11DB11D20931A0180931601AB
:1006B00090931701A0931801B09319018091120132
:1006C00090911301A0911401B09115010196A11D03
:1006D000B11D8093120190931301A0931401B09364
:1006E0001501BF91AF919F918F913F912F910F90E5
:1006F0000FBE0F901F9018959B01AC017FB7F89427
:100700008091120190911301A0911401B0911501F3
:1007100066B5A89B05C06F3F19F00196A11DB11DDC
:100720007FBFBA2FA92F982F8827860F911DA11D53
:10073000B11D62E0880F991FAA1FBB1F6A95D1F7F0
:10074000BC012DC0FFB7F894809112019091130164
:10075000A0911401B0911501E6B5A89B05C0EF3F2B
:1007600019F00196A11DB11DFFBFBA2FA92F982F17
:1007700088278E0F911DA11DB11DE2E0880F991FE2
:10078000AA1FBB1FEA95D1F7861B970B885E934083
:10079000C8F2215030404040504068517C4F2115F4
:1007A00031054105510571F60895019739F0880F1B
:1007B000991F880F991F02970197F1F70895789470
:1007C00084B5826084BD84B5816084BD85B5826056
:1007D00085BD85B5816085BDEEE6F0E080818160F4
:1007E0008083E1E8F0E010828081826080838081F4
:1007F00081608083E0E8F0E0808181608083E1EBCC
:10080000F0E0808184608083E0EBF0E080818160B3
:100810008083EAE7F0E08081846080838081826069
:100820008083808181608083808180688083109252
:10083000C1000895CF93DF93482F50E0CA01865638
:100840009F4FFC0134914A575F4FFA0184918823EE
:1008500069F190E0880F991FFC01E859FF4FA591BD
:10086000B491FC01EE58FF4FC591D491662351F429
:100870002FB7F8948C91932F909589238C9388812E
:1008800089230BC0623061F42FB7F8948C91932FB9
:10089000909589238C938881832B88832FBF06C0F2
:1008A0009FB7F8948C91832B8C939FBFDF91CF914E
:1008B0000895482F50E0CA0182559F4FFC012491B2
:1008C000CA0186569F4FFC0194914A575F4FFA0127
:1008D0003491332309F440C0222351F1233071F0C5
:1008E000243028F42130A1F0223011F514C0263034
:1008F000B1F02730C1F02430D9F404C080918000D9
:100900008F7703C0809180008F7D8093800010C01E
:1009100084B58F7702C084B58F7D84BD09C0809176
:10092000B0008F7703C08091B0008F7D8093B000BE
:10093000E32FF0E0EE0FFF1FEE58FF4FA591B491AB
:100940002FB7F894662321F48C919095892302C0E7
:100950008C91892B8C932FBF0895682F70E0CB0169
:1009600082559F4FFC012491CB0186569F4FFC017D
:1009700044916A577F4FFB019491992319F420E029
:1009800030E03CC0222351F1233071F0243028F4B0
:100990002130A1F0223011F514C02630B1F02730FB
:1009A000C1F02430D9F404C0809180008F7703C057
:1009B000809180008F7D8093800010C084B58F77F8
:1009C00002C084B58F7D84BD09C08091B0008F774F
:1009D00003C08091B0008F7D8093B000892F90E09C
:1009E000880F991F84589F4FFC01A591B4918C9159
:1009F00020E030E0842311F021E030E0C9010895C7
:100A00008F929F92AF92BF92CF92DF92EF92FF921E
:100A10000F931F93CF93DF93A82FB0E0CD0186569D
:100A20009F4FFC018490AA57BF4FFD01849166231C
:100A300011F4992401C0982C6FEFA62E6FEFB62EFB
:100A40006FEFC62E6FE0D62EA222B322C422D5228B
:100A5000682F70E0660F771F64587F4FEE24FF24E5
:100A60008701FB01A591B4910BC0EA14FB040C05AE
:100A70001D0509F44EC00894E11CF11C011D111D57
:100A80008C918821891589F30CC0EA14FB040C05AC
:100A90001D0509F43EC00894E11CF11C011D111D47
:100AA00003C0FB01A591B4918C918821891569F748
:100AB00020E030E040E050E0FB01C591D4910FC050
:100AC000DA01C9018E0D9F1DA01FB11F8A159B055C
:100AD000AC05BD05F1F02F5F3F4F4F4F5F4F888151
:100AE0008821891569F3CA01B90125E130E040E0A8
:100AF00050E00E944E079B01AC01205F3F4F4F4FDB
:100B00005F4F84E056954795379527958A95D1F79D
:100B100004C020E030E040E050E0B901CA01DF91BC
:100B2000CF911F910F91FF90EF90DF90CF90BF90EA
:100B3000AF909F908F900895CF93DF930E94DF0333
:100B40000E941303C0E0D0E00E94E1002097E1F38F
:100B50000E940000F9CFEF92FF920F931F937B0149
:100B60008C01611571058105910529F420E030E0C3
:100B700040E050E00BC00E94D300A80197010E9402
:100B80006D07AC01CB01DA019C01AD01B901CA01CD
:100B90001F910F91FF90EF900895A8D008F481E085
:100BA00008950CD0DEC0D6D040F0CDD030F021F486
:100BB0005F3F19F0BFC0511108C1C2C0E3D098F324
:100BC0009923C9F35523B1F3951B550BBB27AA27CE
:100BD00062177307840738F09F5F5F4F220F331F40
:100BE000441FAA1FA9F333D00E2E3AF0E0E830D00C
:100BF00091505040E695001CCAF729D0FE2F27D00F
:100C0000660F771F881FBB1F261737074807AB07DC
:100C1000B0E809F0BB0B802DBF01FF2793585F4F51
:100C20002AF09E3F510568F085C0CFC05F3FECF3CE
:100C3000983EDCF3869577956795B795F7959F5F16
:100C4000C9F7880F911D9695879597F90895E1E06A
:100C5000660F771F881FBB1F621773078407BA07C9
:100C600020F0621B730B840BBA0BEE1F88F7E09524
:100C70000895E89409C097FB3EF49095809570958F
:100C800061957F4F8F4F9F4F9923A9F0F92F96E9D8
:100C9000BB279395F695879577956795B795F1114D
:100CA000F8CFFAF4BB0F11F460FF1BC06F5F7F4FEA
:100CB0008F4F9F4F16C0882311F096E911C07723FC
:100CC00021F09EE8872F762F05C0662371F096E805
:100CD000862F70E060E02AF09A95660F771F881FD4
:100CE000DAF7880F9695879597F90895990F000878
:100CF000550FAA0BE0E8FEEF16161706E807F907EE
:100D0000C0F012161306E407F50798F0621B730B88
:100D1000840B950B39F40A2661F0232B242B252B09
:100D200021F408950A2609F4A140A6958FEF811DAC
:100D3000811D089597F99F6780E870E060E008954D
:100D40009FEF80EC089500240A94161617061806E3
:100D50000906089500240A941216130614060506BF
:100D60000895092E0394000C11F4882352F0BB0F50
:100D700040F4BF2B11F460FF04C06F5F7F4F8F4FB3
:100D80009F4F089557FD9058440F551F59F05F3FEE
:100D900071F04795880F97FB991F61F09F3F79F09D
:100DA00087950895121613061406551FF2CF46951F
:100DB000F1DF08C0161617061806991FF1CF8695A1
:100DC0007105610508940895E894BB276627772785
:100DD000CB0197F908950BD0C4CFB5DF28F0BADF67
:100DE00018F0952309F0A6CFABCF1124EECFCADFC0
:100DF000A0F3959FD1F3950F50E0551F629FF0012E
:100E0000729FBB27F00DB11D639FAA27F00DB11D86
:100E1000AA1F649F6627B00DA11D661F829F22270F
:100E2000B00DA11D621F739FB00DA11D621F839F96
:100E3000A00D611D221F749F3327A00D611D231F6C
:100E4000849F600D211D822F762F6A2F11249F57BA
:100E500050408AF0E1F088234AF0EE0FFF1FBB1FDD
:100E6000661F771F881F91505040A9F79E3F51057C
:100E700070F060CFAACF5F3FECF3983EDCF386952D
:100E800077956795B795F795E7959F5FC1F7FE2B27
:100E9000880F911D9695879597F90895629FD001C7
:100EA000739FF001829FE00DF11D649FE00DF11D25
:100EB000929FF00D839FF00D749FF00D659FF00DD4
:100EC0009927729FB00DE11DF91F639FB00DE11DC1
:100ED000F91FBD01CF011124089597FB092E0526A6
:100EE0000ED057FD04D014D00AD0001C38F4509511
:100EF0004095309521953F4F4F4F5F4F0895F6F73E
:100F000090958095709561957F4F8F4F9F4F089575
:100F1000A1E21A2EAA1BBB1BFD010DC0AA1FBB1FFD
:100F2000EE1FFF1FA217B307E407F50720F0A21B6F
:100F3000B30BE40BF50B661F771F881F991F1A94DC
:100F400069F760957095809590959B01AC01BD0106
:100F5000CF0108952F923F924F925F926F927F92AE
:100F60008F929F92AF92BF92CF92DF92EF92FF92B9
:100F70000F931F93CF93DF93CDB7DEB7CA1BDB0B65
:100F80000FB6F894DEBF0FBECDBF09942A8839880A
:100F900048885F846E847D848C849B84AA84B98411
:100FA000C884DF80EE80FD800C811B81AA81B9811D
:100FB000CE0FD11D0FB6F894DEBF0FBECDBFED0131
:060FC0000895F894FFCF34
:040FC6000100000026
:00000001FF
