:100000000C9461000C947E000C947E000C947E0095
:100010000C947E000C947E000C947E000C947E0068
:100020000C947E000C947E000C947E000C947E0058
:100030000C947E000C947E000C947E000C947E0048
:100040000C9496010C947E000C947E000C947E001F
:100050000C947E000C947E000C947E000C947E0028
:100060000C947E000C947E00000000002400270009
:100070002A0000000000250028002B0000000000DE
:1000800023002600290004040404040404040202DA
:100090000202020203030303030301020408102007
:1000A0004080010204081020010204081020000012
:1000B0000007000201000003040600000000000029
:1000C000000011241FBECFEFD8E0DEBFCDBF11E08E
:1000D000A0E0B1E0E6E3F4E002C005900D92A230AA
:1000E000B107D9F711E0A2E0B1E001C01D92A13142
:1000F000B107E1F70E9487010C9419020C940000EB
:1001000080E00E94D200909303018093020181E07D
:100110000E94D200909305018093040182E00E9426
:10012000D200909307018093060140910201509103
:1001300003012091040130910501241735074CF487
:10014000841795079CF480E061E00E94330181E010
:1001500008C08217930754F481E061E00E943301E4
:1001600080E060E00E94330182E009C082E061E04B
:100170000E94330180E060E00E94330181E060E092
:100180000E94330108951F9310E0812F61E00E94C7
:10019000F400812F60E00E9433011F5F1330A9F744
:1001A0001F910895982F8E3008F09E50977080917F
:1001B00000018295880F880F807C892B80937C00BA
:1001C00080917A00806480937A0080917A0086FD25
:1001D000FCCF2091780040917900942F80E030E0AE
:1001E000282B392BC9010895CF93DF93482F50E076
:1001F000CA0186569F4FFC0134914A575F4FFA015E
:100200008491882369F190E0880F991FFC01E859D7
:10021000FF4FA591B491FC01EE58FF4FC591D491C9
:10022000662351F42FB7F8948C91932F90958923DE
:100230008C93888189230BC0623061F42FB7F894C6
:100240008C91932F909589238C938881832B88831D
:100250002FBF06C09FB7F8948C91832B8C939FBFC0
:10026000DF91CF910895482F50E0CA0182559F4FEA
:10027000FC012491CA0186569F4FFC0194914A5774
:100280005F4FFA013491332309F440C0222351F126
:10029000233071F0243028F42130A1F0223011F500
:1002A00014C02630B1F02730C1F02430D9F404C096
:1002B000809180008F7703C0809180008F7D809334
:1002C000800010C084B58F7702C084B58F7D84BD57
:1002D00009C08091B0008F7703C08091B0008F7DFE
:1002E0008093B000E32FF0E0EE0FFF1FEE58FF4FBA
:1002F000A591B4912FB7F894662321F48C91909531
:10030000892302C08C91892B8C932FBF0895CF93A2
:10031000DF930E94DE010E94C300C0E0D0E00E9493
:1003200080002097E1F30E940000F9CF1F920F9206
:100330000FB60F9211242F933F938F939F93AF93F8
:10034000BF9380910C0190910D01A0910E01B0918D
:100350000F01309110010196A11DB11D232F2D5FBA
:100360002D3720F02D570196A11DB11D20931001AE
:1003700080930C0190930D01A0930E01B0930F0197
:100380008091080190910901A0910A01B0910B019F
:100390000196A11DB11D8093080190930901A093BE
:1003A0000A01B0930B01BF91AF919F918F913F9143
:1003B0002F910F900FBE0F901F901895789484B5D1
:1003C000826084BD84B5816084BD85B5826085BD51
:1003D00085B5816085BDEEE6F0E080818160808337
:1003E000E1E8F0E01082808182608083808181601A
:1003F0008083E0E8F0E0808181608083E1EBF0E0E1
:10040000808184608083E0EBF0E080818160808384
:10041000EAE7F0E08081846080838081826080836D
:100420008081816080838081806880831092C10098
:060430000895F894FFCFCF
:020436000100C3
:00000001FF
