:100000000C94A2000C94BF000C94BF000C94BF0091
:100010000C94BF000C94BF000C94BF000C94BF0064
:100020000C94BF000C94BF000C94BF000C94BF0054
:100030000C94BF000C94BF000C94BF000C94BF0044
:100040000C941D010C94BF000C94BF000C94BF00D5
:100050000C94BF000C94BF000C94BF000C94BF0024
:100060000C94BF000C94BF0007634236B79BD8A71F
:100070001A39685618AEBAAB558C1D3CB7CC5763CD
:10008000BD6DEDFD753EF6177231BF000000803F7B
:1000900008000000BE922449123EABAAAA2ABECD97
:1000A000CCCC4C3E00000080BEABAAAAAA3E000009
:1000B0000000BF000000803F000000000008417801
:1000C000D3BB4387D1133D190E3CC3BD4282AD2B38
:1000D0003E68EC8276BED98FE1A93E4C80EFFFBE30
:1000E00001C4FF7F3F00000000000000000024006A
:1000F00027002A0000000000250028002B00000037
:10010000000023002600290004040404040404045D
:1001100002020202020203030303030301020408B2
:100120001020408001020408102001020408102061
:1001300000000007000201000003040600000000A8
:100140000000000011241FBECFEFD8E0DEBFCDBFFE
:1001500011E0A0E0B1E0ECE8FCE002C005900D92F7
:10016000A030B107D9F711E0A0E0B1E001C01D92C5
:10017000A930B107E1F70E94DF020C9444060C9409
:1001800000000895DF92EF92FF920F931F93CF9399
:10019000DF9310E0812F62E00E94F9011F5F1830A9
:1001A000C9F788E061E00E94F90188E060E00E9400
:1001B0003802C0E0D0E0DD248D2D0E948C02892B16
:1001C000F1F46D2D70E080E090E00E9484039B01CB
:1001D000AC0160E070E080E090E40E9412047B01DA
:1001E0008C01BE01882777FD8095982F0E94860399
:1001F000A80197010E94EF020E945303EB01D394E0
:1002000088E0D816C9F661E00E943802CC0FDD1FE5
:10021000CC0FDD1FBE01882777FD8095982F0E94A7
:10022000650188E060E00E943802DF91CF911F9164
:100230000F91FF90EF90DF9008951F920F920FB6ED
:100240000F9211242F933F938F939F93AF93BF935C
:100250008091040190910501A0910601B0910701E0
:10026000309108010196A11DB11D232F2D5F2D375F
:1002700020F02D570196A11DB11D209308018093F8
:10028000040190930501A0930601B09307018091AA
:10029000000190910101A0910201B091030101962A
:1002A000A11DB11D8093000190930101A093020153
:1002B000B0930301BF91AF919F918F913F912F9187
:1002C0000F900FBE0F901F9018959B01AC017FB748
:1002D000F8948091000190910101A0910201B091E8
:1002E000030166B5A89B05C06F3F19F00196A11DDB
:1002F000B11D7FBFBA2FA92F982F8827860F911D78
:10030000A11DB11D62E0880F991FAA1FBB1F6A952E
:10031000D1F7BC012DC0FFB7F894809100019091F6
:100320000101A0910201B0910301E6B5A89B05C0AF
:10033000EF3F19F00196A11DB11DFFBFBA2FA92FE4
:10034000982F88278E0F911DA11DB11DE2E0880F07
:10035000991FAA1FBB1FEA95D1F7861B970B885ED2
:100360009340C8F2215030404040504068517C4F8B
:10037000211531054105510571F60895789484B52C
:10038000826084BD84B5816084BD85B5826085BD91
:1003900085B5816085BDEEE6F0E080818160808377
:1003A000E1E8F0E01082808182608083808181605A
:1003B0008083E0E8F0E0808181608083E1EBF0E021
:1003C000808184608083E0EBF0E0808181608083C5
:1003D000EAE7F0E0808184608083808182608083AE
:1003E0008081816080838081806880831092C100D9
:1003F0000895CF93DF93482F50E0CA01845E9E4F4B
:10040000FC013491485F5E4FFA018491882369F1C1
:1004100090E0880F991FFC01E651FF4FA591B49120
:10042000FC01EC50FF4FC591D491662351F42FB7D6
:10043000F8948C91932F909589238C9388818923AC
:100440000BC0623061F42FB7F8948C91932F909584
:1004500089238C938881832B88832FBF06C09FB705
:10046000F8948C91832B8C939FBFDF91CF9108954B
:10047000482F50E0CA01805D9E4FFC012491CA01C3
:10048000845E9E4FFC019491485F5E4FFA01349167
:10049000332309F440C0222351F1233071F024307A
:1004A00028F42130A1F0223011F514C02630B1F02B
:1004B0002730C1F02430D9F404C0809180008F77B8
:1004C00003C0809180008F7D8093800010C084B530
:1004D0008F7702C084B58F7D84BD09C08091B00044
:1004E0008F7703C08091B0008F7D8093B000E32FA1
:1004F000F0E0EE0FFF1FEC50FF4FA591B4912FB726
:10050000F894662321F48C919095892302C08C91F4
:10051000892B8C932FBF0895682F70E0CB01805DED
:100520009E4FFC012491CB01845E9E4FFC014491BF
:10053000685F7E4FFB019491992319F420E030E02D
:100540003CC0222351F1233071F0243028F42130B3
:10055000A1F0223011F514C02630B1F02730C1F0DF
:100560002430D9F404C0809180008F7703C080913B
:1005700080008F7D8093800010C084B58F7702C08B
:1005800084B58F7D84BD09C08091B0008F7703C092
:100590008091B0008F7D8093B000892F90E0880F0C
:1005A000991F82509F4FFC01A591B4918C9120E03E
:1005B00030E0842311F021E030E0C9010895CF93A9
:1005C000DF930E94BE010E94C200C0E0D0E00E9402
:1005D000C1002097E1F30E940000F9CF5058BB27DB
:1005E000AA270ED0E5C0D6D030F0DBD020F031F411
:1005F0009F3F11F41EF4CBC00EF4E095E7FBC1C0A1
:10060000E92FE7D080F3BA176207730784079507CD
:1006100018F071F49EF5FFC00EF4E0950B2EBA2F82
:10062000A02D0B01B90190010C01CA01A0011124F8
:10063000FF27591B99F0593F50F4503E68F11A16A4
:10064000F040A22F232F342F4427585FF3CF469535
:1006500037952795A795F0405395C9F77EF41F1657
:10066000BA0B620B730B840BBAF09150A1F0FF0F21
:10067000BB1F661F771F881FC2F70EC0BA0F621F0D
:10068000731F841F48F4879577956795B795F795FD
:100690009E3F08F0B3CF9395880F08F09927EE0F8F
:1006A00097958795089504D06894B111B5C00895C1
:1006B00098D088F09F5790F0B92F9927B751A0F0A4
:1006C000D1F0660F771F881F991F1AF0BA95C9F7E6
:1006D00012C0B13081F09FD0B1E008959CC0672F67
:1006E000782F8827B85F39F0B93FCCF38695779596
:1006F0006795B395D9F73EF490958095709561957F
:100700007F4F8F4F9F4F0895E89409C097FB3EF4A9
:1007100090958095709561957F4F8F4F9F4F99234E
:10072000A9F0F92F96E9BB279395F69587957795CC
:100730006795B795F111F8CFFAF4BB0F11F460FF8C
:100740001BC06F5F7F4F8F4F9F4F16C0882311F0E4
:1007500096E911C0772321F09EE8872F762F05C0F8
:10076000662371F096E8862F70E060E02AF09A9593
:10077000660F771F881FDAF7880F9695879597F988
:10078000089597F99F6780E870E060E008959FEF13
:1007900080EC089500240A94161617061806090618
:1007A000089500240A9412161306140605060895E7
:1007B000092E0394000C11F4882352F0BB0F40F46F
:1007C000BF2B11F460FF04C06F5F7F4F8F4F9F4FAF
:1007D000089557FD9058440F551F59F05F3F71F031
:1007E0004795880F97FB991F61F09F3F79F0879598
:1007F0000895121613061406551FF2CF4695F1DF21
:1008000008C0161617061806991FF1CF86957105B0
:10081000610508940895E894BB2766277727CB01E4
:1008200097F90895FA01EE0FFF1F30962105310563
:1008300099F16115710561F48038BFE39B0749F1B7
:1008400068949038810561F08038BFEF9B0741F0D4
:10085000992342F5FF3FE1053105210511F1E894A7
:100860000894E795D901AA2329F4AB2FBE2FF85F8E
:10087000D0F310C0FF5F70F4A695E0F7F73950F0A1
:1008800019F0FF3A38F49F779F930CD00F9007FC34
:10089000905808953EF07BCF60E070E080E89FE3E1
:1008A00008954FE79F775F934F933F932F939ED089
:1008B0002F913F914F915F910CD105C019F40EF02B
:1008C00060CFA9CF64CF8DDFC8F39638C0F707F8A3
:1008D0000F92E8942BE33AEA48EB5FE708D10F92D6
:1008E0000F920F924DB75EB70F92C0D0E8E6F0E0DE
:1008F00016D04F915F91EF91FF91E595EE1FFF1F8D
:1009000049F0FE57E0684427EE0F441FFA95E1F7DF
:100910004195550B32D00F9007FE26C00895DF9306
:10092000CF931F930F93FF92EF92DF927B018C0185
:10093000689405C0DA2EEF01D8D0FE01E894A591A5
:100940002591359145915591AEF3EF0159DEFE01A8
:100950009701A801DA9479F7DF90EF90FF900F915B
:100960001F91CF91DF9108959B01AC0160E070E091
:1009700080E89FE311C105CF77C133DFE8F3992306
:10098000D9F3940F511DBBF39150504094F059F09E
:10099000882332F0660F771F881F91505040C1F7AF
:1009A0009E3F510544F7880F911D9695879597F9BD
:1009B00008955F3FACF0983E9CF0BB2786957795F5
:1009C0006795B79508F4B1609395C1F7BB0F58F7D9
:1009D00011F460FFE8CF6F5F7F4F8F4F9F4FE3CFE2
:1009E0001BCF0EF041C1D3CE6894CBCEFADEC8F354
:1009F0009923D1F3C6F3DF93CF931F930F93FF9205
:100A0000C92FDD2788232AF02197660F771F881FBB
:100A1000DAF720E030E040E85FEB9FE3883920F030
:100A2000803E30F021968F77DADDE0E9F0E003C018
:100A3000D6DDEDEBF0E073DF8B01BE01EC01FB2EA8
:100A40006F5771097595771F880B990B5FDE28E149
:100A500032E741E35FE349D0AF2D9801AE01FF904B
:100A60000F911F91CF91DF91CBDDA2CEFA01DC0176
:100A7000AA0FBB1F9B01AC01BF5728F422273327C5
:100A8000442750781FC0B75188F4AB2F00244695F7
:100A900037952795011CA395D2F3002069F0220F0A
:100AA000331F441FB395DAF30DD098CD6130710533
:100AB000A0E88A07B94630F49B01AC016627772786
:100AC00088279078309621F02083318342835383A6
:100AD00008950BD06DCE5EDE28F063DE18F095230E
:100AE00009F04FCE54CE112497CE73DEA0F3959F1C
:100AF000D1F3950F50E0551F629FF001729FBB2705
:100B0000F00DB11D639FAA27F00DB11DAA1F649FB0
:100B10006627B00DA11D661F829F2227B00DA11D63
:100B2000621F739FB00DA11D621F839FA00D611DE9
:100B3000221F749F3327A00D611D231F849F600D0A
:100B4000211D822F762F6A2F11249F5750408AF043
:100B5000E1F088234AF0EE0FFF1FBB1F661F771FCF
:100B6000881F91505040A9F79E3F510570F009CE63
:100B700053CE5F3FECF3983EDCF38695779567950F
:100B8000B795F795E7959F5FC1F7FE2B880F911DED
:100B90009695879597F908950CD00ACE02DE40F01D
:100BA000F9DD30F021F45F3F19F0EBCD511134CE77
:100BB000EECD0FDE98F39923C9F35523B1F3951BBE
:100BC000550BBB27AA2762177307840738F09F5F6E
:100BD0005F4F220F331F441FAA1FA9F333D00E2EDD
:100BE0003AF0E0E830D091505040E695001CCAF74A
:100BF00029D0FE2F27D0660F771F881FBB1F26170F
:100C000037074807AB07B0E809F0BB0B802DBF01E1
:100C1000FF2793585F4F2AF09E3F510568F0B1CDF2
:100C2000FBCD5F3FECF3983EDCF3869577956795B7
:100C3000B795F7959F5FC9F7880F911D9695879592
:100C400097F90895E1E0660F771F881FBB1F6217B1
:100C500073078407BA0720F0621B730B840BBA0B6F
:100C6000EE1F88F7E09508959F3F49F0915028F4D2
:100C7000869577956795B7959F5F80389F4F880FCA
:0C0C80009695879597F90895F894FFCF9A
:00000001FF
