:100000000C942A000C9434000C9434000C943400AA
:100010000C9434000C9434000C9434000C94340090
:100020000C9434000C9434000C9434000C94340080
:100030000C9434000C9434000C9434000C94340070
:100040000C9434000C9434000C9434000C94340060
:100050000C94340011241FBECFE5D4E0DEBFCDBF29
:100060000E9436000C947F000C9400008FE08ABB45
:1000700031E082E094E028E03BBB4FE35DE063E0E9
:10008000415050406040E1F700C000001BBA8BBBFC
:100090004FE35DE063E0415050406040E1F700C055
:1000A00000001BBA9BBB4FE35DE063E04150504052
:1000B0006040E1F700C000001BBA2BBB4FE35DE0DE
:1000C00063E0415050406040E1F700C000001BBABF
:1000D0009BBB4FE35DE063E0415050406040E1F77F
:1000E00000C000001BBA8BBB4FE35DE063E04150F2
:1000F00050406040E1F700C000001BBABDCFF8944B
:02010000FFCF2F
:00000001FF
